:100000000EC028C027C026C025C060C123C022C0A2
:1000100021C020C01FC01EC01DC01CC01BC0112499
:100020001FBECFE5D2E0DEBFCDBF10E0A0E6B0E05E
:10003000EAE1F5E002C005900D92AE37B107D9F7BD
:1000400020E0AEE7B0E001C01D92A139B207E1F7B0
:10005000BFD161C2D5CF87B3836187BB83EA8ABD35
:1000600083E083BF89B7826089BF789480B7876057
:1000700080BF8CB580668CBD8FEF8DBD08956817ED
:10008000790754F44817590784F04617570714F4B2
:10009000862F0895842F08954617570714F4862F46
:1000A0000895481759070CF0842F0895EF92FF9296
:1000B0000F931F93CF93DF9310927E0060938D0078
:1000C00070938C0080938B0080918D0090E0209144
:1000D00090007C01E21AF10880918C0090E0209160
:1000E0008F008C01021B1109C0918B00D0E0809120
:1000F0008E00C81BD109AE0122F4442755274C1BA2
:100100005D0BB801112324F466277727601B710B60
:10011000C701FF2024F4882799278E199F09AFDF94
:10012000282F30E0C7019695982F882797958795B7
:10013000B901CAD170938A0060938900C80196956D
:10014000982F882797958795B901BED1709388001D
:1001500060938700CE019695982F8827979587956D
:10016000B901B2D17093860060938500DF91CF9181
:100170001F910F91FF90EF90089580919000209132
:100180008D0090E0821B91099C0122F422273327E5
:10019000281B390B1216130674F420918900309134
:1001A0008A008091830090918400820F931F909326
:1001B00084008093830080918F0020918C0090E0D8
:1001C000821B91099C0122F422273327281B390B1B
:1001D0001216130674F420918700309188008091E4
:1001E000810090918200820F931F909382008093F0
:1001F000810080918E0020918B0090E0821B9109FC
:100200009C0122F422273327281B390B12161306D0
:1002100074F4209185003091860080917F00909148
:100220008000820F931F9093800080937F008091C5
:10023000830090918400880F892F881F990B9195D6
:10024000809390008091810090918200880F892F87
:10025000881F990B919580938F0080917F009091DA
:100260008000880F892F881F990B919580938E00AD
:100270009091900080918D0098130EC090918F0006
:1002800080918C0098130AC090918E0080918B0011
:10029000981731F090E005C090E003C090E001C0F5
:1002A00091E0892F817080937E008091900089BDBC
:1002B00080918F0088BD80918E00823018F482E09A
:1002C0008BBD089580918E008BBD08951F920F9273
:1002D0000FB60F9211242F933F934F935F936F9319
:1002E0007F938F939F93AF93BF93EF93FF9345DFDC
:1002F000FF91EF91BF91AF919F918F917F916F91FE
:100300005F914F913F912F910F900FBE0F901F90D3
:10031000189587B1836287B986B1836086B986B143
:10032000806886B9089586B1806486B93699FECF13
:1003300085B1089587B1807F87B987B1836087B918
:10034000F2DF089587B1807F87B987B1816087B96F
:10035000EADF0895E82F862F90E08E1B910996958D
:10036000982F882797958795642F70E0ADD0CB01A3
:10037000622F70E098D0880F892F881F990B8E0FFD
:100380000895DF92EF92FF920F931F93CF93DF9325
:10039000962FC72F182F622FD32EF42E202F4E2DDD
:1003A000892FD8DFD82F202F4E2D6D2D8C2FD2DF07
:1003B000C82F202F4E2D6F2D812FCCDF6D2F7C2F3E
:1003C000DF91CF911F910F91FF90EF90DF900895F3
:1003D00042DE9FDFC0E0D0E010E002C0C0E0D0E02D
:1003E00080917E008823E1F3A5DF8B3008F48BE059
:1003F000082F0095A7DF602F70E0212F30E0A901C2
:10040000440F551F440F551F240F351FA901440FDA
:10041000551F282F30E0241B350B11E02617370716
:100420000CF010E0261737076CF50B37B0F00A57C1
:1004300020916000309161004091620080916300E2
:1004400090916400A09165000F2EFAE7EF2EF02D39
:10045000BC018A2F96DF2ADEC3CF20916300309142
:100460006400409165008091660090916700A091C2
:1004700068000F2EFAE7EF2EF02DBC018A2F81DFE6
:1004800015DEAECFFE01EE0FFF1FEC0FFD1FE7598B
:10049000FF4F60817181828109DE2196C730D105CD
:1004A00009F09ECF9BCF0024552704C0080E591F8A
:1004B000880F991F009729F076956795B8F3710515
:1004C000B9F7802D952F089597FB072E16F4009409
:1004D00006D077FD08D00BD007FC05D03EF49095F0
:1004E00081959F4F0895709561957F4F0895AA1B40
:1004F000BB1B51E107C0AA1FBB1FA617B70710F00F
:10050000A61BB70B881F991F5A95A9F78095909540
:0A051000BC01CD010895F894FFCF5F
:10051A00FF0000FFFF0000FF00FF0002FFA502FF2F
:0E052A00FF0200F1140000FF4B0082A800FF4A
:00000001FF
